S011000050726F6A6563745F312E73726563AC
S11300000C942A000C9447000C9447000C9447006D
S11300100C9447000C9447000C9447000C94470040
S11300200C9447000C9447000C9447000C94470030
S11300300C9447000C9447000C9447000C94470020
S11300400C9447000C9447000C9447000C94470010
S11300500C94470011241FBECFE5D8E0DEBFCDBF0E
S113006010E0A0E6B0E0EEE2F8E002C005900D92E8
S1130070AA38B107D9F720E0AAE8B0E001C01D9280
S1130080AE38B207E1F70E9449000C9415040C94B1
S11300900000CF93DF93CDB7DEB7A8970FB6F894DF
S11300A0DEBF0FBECDBF0E945B0288E0E0E6F0E059
S11300B0DE01119601900D928A95E1F788E0E8E659
S11300C0F0E0DE01199601900D928A95E1F788E03F
S11300D0E0E7F0E0DE01519601900D928A95E1F798
S11300E088E0E8E7F0E0DE01599601900D928A95E8
S11300F0E1F78E010F5D1F4F88E0F80111928A9598
S1130100E9F788E18BA360E0CE0101960E94D90251
S113011061E0CE0109960E94D90262E0CE014196C7
S11301200E94D90263E0CE0149960E94D90264E09C
S1130130C8010E94D90260E070E080E090E00E9473
S1130140C10280E00E947D026FE070E080E090E0F8
S11301500E94C10282E00E947D0281E00E94D201DD
S113016082E00E94D20183E00E94D20184E00E94D6
S1130170D201612CC12CD12CA12CB12CE12CF12C5D
S113018000E010E081E00E940902782E82E00E94E3
S11301900902582E83E00E940902882E84E00E94FE
S11301A00902982E711017C060E070E081E090E0C1
S11301B00E94C10280E20E947D0260E070E080E063
S11301C090E00E94C10210928D0010928C0080E099
S11301D00E947D021AC0511018C060E070E080E0F7
S11301E090E00E94C10280E20E947D0260E070E023
S11301F081E090E00E94C10281E090E090938D0044
S113020080938C0080E00E947D02811006C0A09043
S11302108C00B0908D006624639491102BC01092D2
S11302208B0010928A0010928D0010928C0060E076
S113023070E080E090E00E94C1026FE070E0809185
S11302408A0090918B000E94C10280E00E947D028E
S113025082E00E947D0266E070E080E090E00E940F
S1130260C10280E890E00E94AE02612CE12CF12CE6
S113027000E010E0662009F453C0FEE0CF16D1047C
S1130280ECF42CEDE21625E0F206C1F446018FEF02
S1130290881A980AB401C5010E94C10284E00E9430
S11302A07D02E1E08E169104B1F1B601C5010E9410
S11302B0C10280E20E947D02640132C0FEE0CF16DA
S11302C0D10429F5B601C5010E94C10280E20E9451
S11302D07D0280918A0090918B00A816B906E9F4FA
S11302E083E00E947D0266E070E080E090E00E947E
S11302F0C10285E890E00E94AE0282E090E0909313
S11303008B0080938A00612CC12CD12C09C02FEF63
S1130310E21AF20A05C0640103C0612CC12CD12C7D
S113032080918A0090918B000097D9F4083EE3E015
S11303301E07B9F46FE070E00E94C10280E20E94DF
S11303407D0281E090E090938B0080938A006FE0BF
S113035070E00E94C10282E00E947D0200E010E091
S113036011CF81309105D9F4083EF3E01F07B9F4A9
S11303706FE070E00E94C10280E20E947D02109250
S11303808B0010928A006FE070E080E090E00E94A1
S1130390C10282E00E947D0200E010E0F3CE0F5F14
S11303A01F4FF0CE8230A1F018F4813031F008955F
S11303B08330C9F0843011F1089540E060E084E4B2
S11303C00E94F40240E060E084E40E946C0308951B
S11303D040E061E084E40E94F40240E061E084E4EF
S11303E00E946C03089540E062E084E40E94F402F9
S11303F040E062E084E40E946C03089540E063E01E
S113040084E40E94F40240E063E084E40E946C030C
S11304100895823071F018F4813031F019C08330BE
S113042069F0843081F014C060E084E40E94E40345
S1130430089561E084E40E94E403089562E084E4A2
S11304400E94E403089563E084E40E94E4030895B1
S113045080E0089588BB9BB39D7F9BBB9BB39B7F30
S11304609BBB9BB398609BBBE9EFF0E03197F1F73E
S113047000C000009BB3977F9BBBE1EEF4E0319793
S1130480F1F700C00000F0E18F9FC001112488BB88
S11304908BB388608BBB89EF90E00197F1F700C0C4
S11304A000008BB3877F8BBBE1EEF4E03197F1F76B
S11304B000C0000008958FEF8ABB87BB87E893E1F3
S11304C00197F1F700C0000082E00E942A0288E24E
S11304D00E942A028CE00E942A0286E00E942A02DC
S11304E081E00E942A0283EF91E00197F1F700C0B6
S11304F0000080E80E942A02089588BB9BB39260A2
S11305009BBB9BB39B7F9BBB9BB398609BBBE9EF5F
S1130510F0E03197F1F700C000009BB3977F9BBBDD
S1130520E1EEF4E03197F1F700C00000F0E18F9FB5
S1130530C001112488BB8BB388608BBB89EF90E02A
S11305400197F1F700C000008BB3877F8BBBE1EE0E
S1130550F4E03197F1F700C0000008950F931F9362
S1130560CF938C01C0E003C00E947D02CF5FF801ED
S1130570EC0FF11D80818111F7CFCF911F910F9165
S11305800895CF93DF9300D0CDB7DEB790E8998379
S113059090EC9A83E1E0F0E0EC0FFD1FE80FF11D11
S11305A08081860F0E942A020F900F90DF91CF91D5
S11305B008950F931F93CF938C01862F90E0089694
S11305C0880F880F880F0E942A02C0E007C0F80134
S11305D0EC0FF11D80810E947D02CF5FC830B8F31B
S11305E0CF911F910F910895823429F118F4813429
S11305F039F008958334D1F1843409F452C0089554
S1130600413059F42AB381E090E002C0880F991F69
S11306106A95E2F7822B8ABB089541115CC02AB324
S113062081E090E002C0880F991F6A95E2F78095F7
S113063082238ABB0895413059F427B381E090E0C6
S113064002C0880F991F6A95E2F7822B87BB089531
S1130650411141C027B381E090E002C0880F991F87
S11306606A95E2F78095822387BB0895413059F457
S113067024B381E090E002C0880F991F6A95E2F7E5
S1130680822B84BB0895411126C024B381E090E0FD
S113069002C0880F991F6A95E2F78095822384BB74
S11306A00895413059F421B381E090E002C0880FED
S11306B0991F6A95E2F7822B81BB089541110BC003
S11306C021B381E090E002C0880F991F6A95E2F798
S11306D08095822381BB0895823429F118F48134F2
S11306E039F008958334D1F1843409F452C0089563
S11306F0413059F42BB381E090E002C0880F991F78
S11307006A95E2F7822B8BBB089541115CC02BB331
S113071081E090E002C0880F991F6A95E2F7809506
S113072082238BBB0895413059F428B381E090E0D3
S113073002C0880F991F6A95E2F7822B88BB08953F
S1130740411141C028B381E090E002C0880F991F95
S11307506A95E2F78095822388BB0895413059F465
S113076025B381E090E002C0880F991F6A95E2F7F3
S1130770822B85BB0895411126C025B381E090E00A
S113078002C0880F991F6A95E2F78095822385BB82
S11307900895413059F422B381E090E002C0880FFB
S11307A0991F6A95E2F7822B82BB089541110BC011
S11307B022B381E090E002C0880F991F6A95E2F7A6
S11307C08095822382BB0895823491F018F4813499
S11307D031F029C08334A9F08434E1F024C089B312
S11307E090E002C0959587956A95E2F78170089527
S11307F086B390E002C0959587956A95E2F781707B
S1130800089583B390E002C0959587956A95E2F7C1
S11308108170089580B390E002C0959587956A959C
S1110820E2F78170089580E00895F894FFCF08
S113082E040A041F140E110000001800000E1F1FEE
S113083E040A041F050E111100000000000E1F1FF4
S10D084E20202020003E57696E00B0
S9030000FC
